{
    "_format": "hh-sol-artifact-1",
    "contractName": "Voting",
    "sourceName": "contracts/Voting.sol",
    "abi": [
        {
            "inputs": [],
            "stateMutability": "nonpayable",
            "type": "constructor"
        },
        {
            "anonymous": false,
            "inputs": [
                {
                    "indexed": true,
                    "internalType": "address",
                    "name": "owner",
                    "type": "address"
                }
            ],
            "name": "ElectionFinished",
            "type": "event"
        },
        {
            "anonymous": false,
            "inputs": [
                {
                    "indexed": true,
                    "internalType": "address",
                    "name": "owner",
                    "type": "address"
                }
            ],
            "name": "ElectionReset",
            "type": "event"
        },
        {
            "anonymous": false,
            "inputs": [
                {
                    "indexed": true,
                    "internalType": "address",
                    "name": "owner",
                    "type": "address"
                },
                {
                    "indexed": false,
                    "internalType": "uint256",
                    "name": "startTimestamp",
                    "type": "uint256"
                },
                {
                    "indexed": false,
                    "internalType": "uint256",
                    "name": "endTimestamp",
                    "type": "uint256"
                }
            ],
            "name": "ElectionStarted",
            "type": "event"
        },
        {
            "anonymous": false,
            "inputs": [
                {
                    "indexed": true,
                    "internalType": "address",
                    "name": "voter",
                    "type": "address"
                },
                {
                    "indexed": false,
                    "internalType": "uint256",
                    "name": "candidateId",
                    "type": "uint256"
                }
            ],
            "name": "VoteCast",
            "type": "event"
        },
        {
            "inputs": [
                {
                    "internalType": "string",
                    "name": "_name",
                    "type": "string"
                }
            ],
            "name": "addCandidate",
            "outputs": [],
            "stateMutability": "nonpayable",
            "type": "function"
        },
        {
            "inputs": [
                {
                    "internalType": "uint256",
                    "name": "",
                    "type": "uint256"
                }
            ],
            "name": "candidates",
            "outputs": [
                {
                    "internalType": "uint256",
                    "name": "id",
                    "type": "uint256"
                },
                {
                    "internalType": "string",
                    "name": "name",
                    "type": "string"
                },
                {
                    "internalType": "uint256",
                    "name": "numberOfVotes",
                    "type": "uint256"
                }
            ],
            "stateMutability": "view",
            "type": "function"
        },
        {
            "inputs": [
                {
                    "internalType": "uint256",
                    "name": "_newDuration",
                    "type": "uint256"
                }
            ],
            "name": "changeElectionDuration",
            "outputs": [],
            "stateMutability": "nonpayable",
            "type": "function"
        },
        {
            "inputs": [],
            "name": "checkElectionPeriod",
            "outputs": [
                {
                    "internalType": "bool",
                    "name": "",
                    "type": "bool"
                }
            ],
            "stateMutability": "view",
            "type": "function"
        },
        {
            "inputs": [],
            "name": "electionStarted",
            "outputs": [
                {
                    "internalType": "bool",
                    "name": "",
                    "type": "bool"
                }
            ],
            "stateMutability": "view",
            "type": "function"
        },
        {
            "inputs": [],
            "name": "electionTimer",
            "outputs": [
                {
                    "internalType": "uint256",
                    "name": "",
                    "type": "uint256"
                }
            ],
            "stateMutability": "view",
            "type": "function"
        },
        {
            "inputs": [],
            "name": "endElection",
            "outputs": [],
            "stateMutability": "nonpayable",
            "type": "function"
        },
        {
            "inputs": [],
            "name": "owner",
            "outputs": [
                {
                    "internalType": "address",
                    "name": "",
                    "type": "address"
                }
            ],
            "stateMutability": "view",
            "type": "function"
        },
        {
            "inputs": [],
            "name": "removeAllCandidates",
            "outputs": [],
            "stateMutability": "nonpayable",
            "type": "function"
        },
        {
            "inputs": [
                {
                    "internalType": "uint256",
                    "name": "_candidateId",
                    "type": "uint256"
                }
            ],
            "name": "removeCandidate",
            "outputs": [],
            "stateMutability": "nonpayable",
            "type": "function"
        },
        {
            "inputs": [],
            "name": "resetAllVoterStatus",
            "outputs": [],
            "stateMutability": "nonpayable",
            "type": "function"
        },
        {
            "inputs": [],
            "name": "resetElection",
            "outputs": [],
            "stateMutability": "nonpayable",
            "type": "function"
        },
        {
            "inputs": [],
            "name": "retrieveVotes",
            "outputs": [
                {
                    "components": [
                        {
                            "internalType": "uint256",
                            "name": "id",
                            "type": "uint256"
                        },
                        {
                            "internalType": "string",
                            "name": "name",
                            "type": "string"
                        },
                        {
                            "internalType": "uint256",
                            "name": "numberOfVotes",
                            "type": "uint256"
                        }
                    ],
                    "internalType": "struct Voting.Candidate[]",
                    "name": "",
                    "type": "tuple[]"
                }
            ],
            "stateMutability": "view",
            "type": "function"
        },
        {
            "inputs": [
                {
                    "internalType": "string[]",
                    "name": "_candidates",
                    "type": "string[]"
                },
                {
                    "internalType": "uint256",
                    "name": "_votingDuration",
                    "type": "uint256"
                }
            ],
            "name": "startElection",
            "outputs": [],
            "stateMutability": "nonpayable",
            "type": "function"
        },
        {
            "inputs": [
                {
                    "internalType": "address",
                    "name": "newOwner",
                    "type": "address"
                }
            ],
            "name": "transferOwnership",
            "outputs": [],
            "stateMutability": "nonpayable",
            "type": "function"
        },
        {
            "inputs": [
                {
                    "internalType": "uint256",
                    "name": "_id",
                    "type": "uint256"
                }
            ],
            "name": "voteTo",
            "outputs": [],
            "stateMutability": "nonpayable",
            "type": "function"
        },
        {
            "inputs": [
                {
                    "internalType": "address",
                    "name": "_voter",
                    "type": "address"
                }
            ],
            "name": "voterStatus",
            "outputs": [
                {
                    "internalType": "bool",
                    "name": "",
                    "type": "bool"
                }
            ],
            "stateMutability": "view",
            "type": "function"
        },
        {
            "inputs": [
                {
                    "internalType": "address",
                    "name": "",
                    "type": "address"
                }
            ],
            "name": "voters",
            "outputs": [
                {
                    "internalType": "bool",
                    "name": "",
                    "type": "bool"
                }
            ],
            "stateMutability": "view",
            "type": "function"
        },
        {
            "inputs": [],
            "name": "votingEndTimeStamp",
            "outputs": [
                {
                    "internalType": "uint256",
                    "name": "",
                    "type": "uint256"
                }
            ],
            "stateMutability": "view",
            "type": "function"
        },
        {
            "inputs": [],
            "name": "votingStartTimeStamp",
            "outputs": [
                {
                    "internalType": "uint256",
                    "name": "",
                    "type": "uint256"
                }
            ],
            "stateMutability": "view",
            "type": "function"
        }
    ],
    "bytecode": "0x608060405234801561001057600080fd5b5033600160006101000a81548173ffffffffffffffffffffffffffffffffffffffff021916908373ffffffffffffffffffffffffffffffffffffffff160217905550612880806100616000396000f3fe608060405234801561001057600080fd5b506004361061012c5760003560e01c80638cef1565116100ad578063d5346da111610071578063d5346da1146102f9578063e8f3052314610317578063e9b7001814610321578063f2fde38b1461033f578063f77683a01461035b5761012c565b80638cef1565146102675780638da5cb5b14610283578063a3ec138d146102a1578063d4608b72146102d1578063d4a6cac8146102db5761012c565b80633c9a4df3116100f45780633c9a4df3146101d75780633d7b995c146101f5578063462e91ec14610211578063576cc4f21461022d57806359f784681461025d5761012c565b8063031e50041461013157806309e9d7e21461014f5780630b56a6811461016b5780632a73faaa146101875780633477ee2e146101a5575b600080fd5b610139610365565b60405161014691906119e8565b60405180910390f35b61016960048036038101906101649190611a4a565b61046a565b005b61018560048036038101906101809190611c92565b6106e4565b005b61018f61094e565b60405161019c9190611cfd565b60405180910390f35b6101bf60048036038101906101ba9190611a4a565b610954565b6040516101ce93929190611d62565b60405180910390f35b6101df610a16565b6040516101ec9190611cfd565b60405180910390f35b61020f600480360381019061020a9190611a4a565b610a3e565b005b61022b60048036038101906102269190611da0565b610cab565b005b61024760048036038101906102429190611e47565b610e05565b6040516102549190611e8f565b60405180910390f35b610265610ec1565b005b610281600480360381019061027c9190611a4a565b611029565b005b61028b61116e565b6040516102989190611eb9565b60405180910390f35b6102bb60048036038101906102b69190611e47565b611194565b6040516102c89190611e8f565b60405180910390f35b6102d96111b4565b005b6102e3611373565b6040516102f09190611e8f565b60405180910390f35b610301611384565b60405161030e9190611e8f565b60405180910390f35b61031f611397565b005b610329611567565b6040516103369190611cfd565b60405180910390f35b61035960048036038101906103549190611e47565b61156d565b005b6103636116b0565b005b60606000805480602002602001604051908101604052809291908181526020016000905b828210156104615783829060005260206000209060030201604051806060016040529081600082015481526020016001820180546103c690611f03565b80601f01602080910402602001604051908101604052809291908181526020018280546103f290611f03565b801561043f5780601f106104145761010080835404028352916020019161043f565b820191906000526020600020905b81548152906001019060200180831161042257829003601f168201915b5050505050815260200160028201548152505081526020019060010190610389565b50505050905090565b600160009054906101000a900473ffffffffffffffffffffffffffffffffffffffff1673ffffffffffffffffffffffffffffffffffffffff163373ffffffffffffffffffffffffffffffffffffffff16146104fa576040517f08c379a00000000000000000000000000000000000000000000000000000000081526004016104f190611f80565b60405180910390fd5b6000805490508110610541576040517f08c379a000000000000000000000000000000000000000000000000000000000815260040161053890611fec565b60405180910390fd5b600660009054906101000a900460ff1615610591576040517f08c379a000000000000000000000000000000000000000000000000000000000815260040161058890612058565b60405180910390fd5b60008190505b60016000805490506105a991906120a7565b81101561063f5760006001826105bf91906120db565b815481106105d0576105cf61210f565b5b9060005260206000209060030201600082815481106105f2576105f161210f565b5b9060005260206000209060030201600082015481600001556001820181600101908161061e9190612300565b50600282015481600201559050508080610637906123e8565b915050610597565b506000600160008054905061065491906120a7565b815481106106655761066461210f565b5b906000526020600020906003020160008082016000905560018201600061068c91906117af565b6002820160009055505060008054806106a8576106a7612430565b5b60019003818190600052602060002090600302016000808201600090556001820160006106d591906117af565b60028201600090555050905550565b600160009054906101000a900473ffffffffffffffffffffffffffffffffffffffff1673ffffffffffffffffffffffffffffffffffffffff163373ffffffffffffffffffffffffffffffffffffffff1614610774576040517f08c379a000000000000000000000000000000000000000000000000000000000815260040161076b90611f80565b60405180910390fd5b60001515600660009054906101000a900460ff161515146107ca576040517f08c379a00000000000000000000000000000000000000000000000000000000081526004016107c1906124ab565b60405180910390fd5b5b6000808054905011156107e7576107e2600061046a565b6107cb565b60005b825181101561089357600060405180606001604052808381526020018584815181106108195761081861210f565b5b602002602001015181526020016000815250908060018154018082558091505060019003906000526020600020906003020160009091909190915060008201518160000155602082015181600101908161087391906124cb565b50604082015181600201555050808061088b906123e8565b9150506107ea565b506001600660006101000a81548160ff02191690831515021790555042600481905550603c816108c3919061259d565b426108ce91906120db565b600581905550600160009054906101000a900473ffffffffffffffffffffffffffffffffffffffff1673ffffffffffffffffffffffffffffffffffffffff167f711f4f5cdda41420ee1ea628dc5ae0604c1b7809a0dd538249239072a55a33a96004546005546040516109429291906125df565b60405180910390a25050565b60045481565b6000818154811061096457600080fd5b906000526020600020906003020160009150905080600001549080600101805461098d90611f03565b80601f01602080910402602001604051908101604052809291908181526020018280546109b990611f03565b8015610a065780601f106109db57610100808354040283529160200191610a06565b820191906000526020600020905b8154815290600101906020018083116109e957829003601f168201915b5050505050908060020154905083565b60006005544210610a2a5760009050610a3b565b42600554610a3891906120a7565b90505b90565b600660009054906101000a900460ff16610a8d576040517f08c379a0000000000000000000000000000000000000000000000000000000008152600401610a8490612654565b60405180910390fd5b610a95611373565b610ad4576040517f08c379a0000000000000000000000000000000000000000000000000000000008152600401610acb906126c0565b60405180910390fd5b610add33610e05565b15610b1d576040517f08c379a0000000000000000000000000000000000000000000000000000000008152600401610b1490612752565b60405180910390fd5b6000805490508110610b64576040517f08c379a0000000000000000000000000000000000000000000000000000000008152600401610b5b90611fec565b60405180910390fd5b60008181548110610b7857610b7761210f565b5b90600052602060002090600302016002016000815480929190610b9a906123e8565b91905055506001600260003373ffffffffffffffffffffffffffffffffffffffff1673ffffffffffffffffffffffffffffffffffffffff16815260200190815260200160002060006101000a81548160ff0219169083151502179055506003339080600181540180825580915050600190039060005260206000200160009091909190916101000a81548173ffffffffffffffffffffffffffffffffffffffff021916908373ffffffffffffffffffffffffffffffffffffffff1602179055503373ffffffffffffffffffffffffffffffffffffffff167fa36cc2bebb74db33e9f88110a07ef56e1b31b24b4c4f51b54b1664266e29f45b82604051610ca09190611cfd565b60405180910390a250565b600160009054906101000a900473ffffffffffffffffffffffffffffffffffffffff1673ffffffffffffffffffffffffffffffffffffffff163373ffffffffffffffffffffffffffffffffffffffff1614610d3b576040517f08c379a0000000000000000000000000000000000000000000000000000000008152600401610d3290611f80565b60405180910390fd5b600660009054906101000a900460ff16610d8a576040517f08c379a0000000000000000000000000000000000000000000000000000000008152600401610d8190612654565b60405180910390fd5b60006040518060600160405280600080549050815260200183815260200160008152509080600181540180825580915050600190039060005260206000209060030201600090919091909150600082015181600001556020820151816001019081610df591906124cb565b5060408201518160020155505050565b6000600660009054906101000a900460ff16610e56576040517f08c379a0000000000000000000000000000000000000000000000000000000008152600401610e4d90612654565b60405180910390fd5b60011515600260008473ffffffffffffffffffffffffffffffffffffffff1673ffffffffffffffffffffffffffffffffffffffff16815260200190815260200160002060009054906101000a900460ff16151503610eb75760019050610ebc565b600090505b919050565b600160009054906101000a900473ffffffffffffffffffffffffffffffffffffffff1673ffffffffffffffffffffffffffffffffffffffff163373ffffffffffffffffffffffffffffffffffffffff1614610f51576040517f08c379a0000000000000000000000000000000000000000000000000000000008152600401610f4890611f80565b60405180910390fd5b600660009054906101000a900460ff16610fa0576040517f08c379a0000000000000000000000000000000000000000000000000000000008152600401610f9790612654565b60405180910390fd5b6000600660006101000a81548160ff02191690831515021790555042600581905550600160009054906101000a900473ffffffffffffffffffffffffffffffffffffffff1673ffffffffffffffffffffffffffffffffffffffff167fdbeccdf642d2e5303d30402a5b34dd15059be4afdda8926ead7343c24ad210f660405160405180910390a2565b600160009054906101000a900473ffffffffffffffffffffffffffffffffffffffff1673ffffffffffffffffffffffffffffffffffffffff163373ffffffffffffffffffffffffffffffffffffffff16146110b9576040517f08c379a00000000000000000000000000000000000000000000000000000000081526004016110b090611f80565b60405180910390fd5b600660009054906101000a900460ff16611108576040517f08c379a00000000000000000000000000000000000000000000000000000000081526004016110ff90612654565b60405180910390fd5b6000811161114b576040517f08c379a0000000000000000000000000000000000000000000000000000000008152600401611142906127be565b60405180910390fd5b603c81611158919061259d565b60045461116591906120db565b60058190555050565b600160009054906101000a900473ffffffffffffffffffffffffffffffffffffffff1681565b60026020528060005260406000206000915054906101000a900460ff1681565b600160009054906101000a900473ffffffffffffffffffffffffffffffffffffffff1673ffffffffffffffffffffffffffffffffffffffff163373ffffffffffffffffffffffffffffffffffffffff1614611244576040517f08c379a000000000000000000000000000000000000000000000000000000000815260040161123b90611f80565b60405180910390fd5b60005b6003805490508110156112fd576000600260006003848154811061126e5761126d61210f565b5b9060005260206000200160009054906101000a900473ffffffffffffffffffffffffffffffffffffffff1673ffffffffffffffffffffffffffffffffffffffff1673ffffffffffffffffffffffffffffffffffffffff16815260200190815260200160002060006101000a81548160ff02191690831515021790555080806112f5906123e8565b915050611247565b506003600061130c91906117ef565b600160009054906101000a900473ffffffffffffffffffffffffffffffffffffffff1673ffffffffffffffffffffffffffffffffffffffff167f9025efdebb25942b0e5b22ad8b3b075f774f7badd8ab70500d6c47352d78d17660405160405180910390a2565b60008061137e610a16565b11905090565b600660009054906101000a900460ff1681565b600160009054906101000a900473ffffffffffffffffffffffffffffffffffffffff1673ffffffffffffffffffffffffffffffffffffffff163373ffffffffffffffffffffffffffffffffffffffff1614611427576040517f08c379a000000000000000000000000000000000000000000000000000000000815260040161141e90611f80565b60405180910390fd5b600660009054906101000a900460ff1615611477576040517f08c379a000000000000000000000000000000000000000000000000000000000815260040161146e906124ab565b60405180910390fd5b60005b6000805490508110156114c457600080828154811061149c5761149b61210f565b5b90600052602060002090600302016002018190555080806114bc906123e8565b91505061147a565b506114cd6111b4565b6000600660006101000a81548160ff021916908315150217905550600060048190555060006005819055506115006116b0565b600160009054906101000a900473ffffffffffffffffffffffffffffffffffffffff1673ffffffffffffffffffffffffffffffffffffffff167f9025efdebb25942b0e5b22ad8b3b075f774f7badd8ab70500d6c47352d78d17660405160405180910390a2565b60055481565b600160009054906101000a900473ffffffffffffffffffffffffffffffffffffffff1673ffffffffffffffffffffffffffffffffffffffff163373ffffffffffffffffffffffffffffffffffffffff16146115fd576040517f08c379a00000000000000000000000000000000000000000000000000000000081526004016115f490611f80565b60405180910390fd5b600073ffffffffffffffffffffffffffffffffffffffff168173ffffffffffffffffffffffffffffffffffffffff160361166c576040517f08c379a00000000000000000000000000000000000000000000000000000000081526004016116639061282a565b60405180910390fd5b80600160006101000a81548173ffffffffffffffffffffffffffffffffffffffff021916908373ffffffffffffffffffffffffffffffffffffffff16021790555050565b600160009054906101000a900473ffffffffffffffffffffffffffffffffffffffff1673ffffffffffffffffffffffffffffffffffffffff163373ffffffffffffffffffffffffffffffffffffffff1614611740576040517f08c379a000000000000000000000000000000000000000000000000000000000815260040161173790611f80565b60405180910390fd5b600660009054906101000a900460ff1615611790576040517f08c379a0000000000000000000000000000000000000000000000000000000008152600401611787906124ab565b60405180910390fd5b5b6000808054905011156117ad576117a8600061046a565b611791565b565b5080546117bb90611f03565b6000825580601f106117cd57506117ec565b601f0160209004906000526020600020908101906117eb9190611810565b5b50565b508054600082559060005260206000209081019061180d9190611810565b50565b5b80821115611829576000816000905550600101611811565b5090565b600081519050919050565b600082825260208201905092915050565b6000819050602082019050919050565b6000819050919050565b61186c81611859565b82525050565b600081519050919050565b600082825260208201905092915050565b60005b838110156118ac578082015181840152602081019050611891565b60008484015250505050565b6000601f19601f8301169050919050565b60006118d482611872565b6118de818561187d565b93506118ee81856020860161188e565b6118f7816118b8565b840191505092915050565b600060608301600083015161191a6000860182611863565b506020830151848203602086015261193282826118c9565b91505060408301516119476040860182611863565b508091505092915050565b600061195e8383611902565b905092915050565b6000602082019050919050565b600061197e8261182d565b6119888185611838565b93508360208202850161199a85611849565b8060005b858110156119d657848403895281516119b78582611952565b94506119c283611966565b925060208a0199505060018101905061199e565b50829750879550505050505092915050565b60006020820190508181036000830152611a028184611973565b905092915050565b6000604051905090565b600080fd5b600080fd5b611a2781611859565b8114611a3257600080fd5b50565b600081359050611a4481611a1e565b92915050565b600060208284031215611a6057611a5f611a14565b5b6000611a6e84828501611a35565b91505092915050565b600080fd5b7f4e487b7100000000000000000000000000000000000000000000000000000000600052604160045260246000fd5b611ab4826118b8565b810181811067ffffffffffffffff82111715611ad357611ad2611a7c565b5b80604052505050565b6000611ae6611a0a565b9050611af28282611aab565b919050565b600067ffffffffffffffff821115611b1257611b11611a7c565b5b602082029050602081019050919050565b600080fd5b600080fd5b600067ffffffffffffffff821115611b4857611b47611a7c565b5b611b51826118b8565b9050602081019050919050565b82818337600083830152505050565b6000611b80611b7b84611b2d565b611adc565b905082815260208101848484011115611b9c57611b9b611b28565b5b611ba7848285611b5e565b509392505050565b600082601f830112611bc457611bc3611a77565b5b8135611bd4848260208601611b6d565b91505092915050565b6000611bf0611beb84611af7565b611adc565b90508083825260208201905060208402830185811115611c1357611c12611b23565b5b835b81811015611c5a57803567ffffffffffffffff811115611c3857611c37611a77565b5b808601611c458982611baf565b85526020850194505050602081019050611c15565b5050509392505050565b600082601f830112611c7957611c78611a77565b5b8135611c89848260208601611bdd565b91505092915050565b60008060408385031215611ca957611ca8611a14565b5b600083013567ffffffffffffffff811115611cc757611cc6611a19565b5b611cd385828601611c64565b9250506020611ce485828601611a35565b9150509250929050565b611cf781611859565b82525050565b6000602082019050611d126000830184611cee565b92915050565b600082825260208201905092915050565b6000611d3482611872565b611d3e8185611d18565b9350611d4e81856020860161188e565b611d57816118b8565b840191505092915050565b6000606082019050611d776000830186611cee565b8181036020830152611d898185611d29565b9050611d986040830184611cee565b949350505050565b600060208284031215611db657611db5611a14565b5b600082013567ffffffffffffffff811115611dd457611dd3611a19565b5b611de084828501611baf565b91505092915050565b600073ffffffffffffffffffffffffffffffffffffffff82169050919050565b6000611e1482611de9565b9050919050565b611e2481611e09565b8114611e2f57600080fd5b50565b600081359050611e4181611e1b565b92915050565b600060208284031215611e5d57611e5c611a14565b5b6000611e6b84828501611e32565b91505092915050565b60008115159050919050565b611e8981611e74565b82525050565b6000602082019050611ea46000830184611e80565b92915050565b611eb381611e09565b82525050565b6000602082019050611ece6000830184611eaa565b92915050565b7f4e487b7100000000000000000000000000000000000000000000000000000000600052602260045260246000fd5b60006002820490506001821680611f1b57607f821691505b602082108103611f2e57611f2d611ed4565b5b50919050565b7f6e6f7420617574686f72697a656420746f20737461727420656c656374696f6e600082015250565b6000611f6a602083611d18565b9150611f7582611f34565b602082019050919050565b60006020820190508181036000830152611f9981611f5d565b9050919050565b7f496e76616c69642063616e646964617465204944000000000000000000000000600082015250565b6000611fd6601483611d18565b9150611fe182611fa0565b602082019050919050565b6000602082019050818103600083015261200581611fc9565b9050919050565b7f456c656374696f6e206973206f6e676f696e6700000000000000000000000000600082015250565b6000612042601383611d18565b915061204d8261200c565b602082019050919050565b6000602082019050818103600083015261207181612035565b9050919050565b7f4e487b7100000000000000000000000000000000000000000000000000000000600052601160045260246000fd5b60006120b282611859565b91506120bd83611859565b92508282039050818111156120d5576120d4612078565b5b92915050565b60006120e682611859565b91506120f183611859565b925082820190508082111561210957612108612078565b5b92915050565b7f4e487b7100000000000000000000000000000000000000000000000000000000600052603260045260246000fd5b60008154905061214d81611f03565b9050919050565b60008190508160005260206000209050919050565b60006020601f8301049050919050565b600082821b905092915050565b6000600883026121b67fffffffffffffffffffffffffffffffffffffffffffffffffffffffffffffffff82612179565b6121c08683612179565b95508019841693508086168417925050509392505050565b6000819050919050565b60006121fd6121f86121f384611859565b6121d8565b611859565b9050919050565b6000819050919050565b612217836121e2565b61222b61222382612204565b848454612186565b825550505050565b600090565b612240612233565b61224b81848461220e565b505050565b5b8181101561226f57612264600082612238565b600181019050612251565b5050565b601f8211156122b45761228581612154565b61228e84612169565b8101602085101561229d578190505b6122b16122a985612169565b830182612250565b50505b505050565b600082821c905092915050565b60006122d7600019846008026122b9565b1980831691505092915050565b60006122f083836122c6565b9150826002028217905092915050565b81810361230e5750506123e6565b6123178261213e565b67ffffffffffffffff8111156123305761232f611a7c565b5b61233a8254611f03565b612345828285612273565b6000601f8311600181146123745760008415612362578287015490505b61236c85826122e4565b8655506123df565b601f19841661238287612154565b965061238d86612154565b60005b828110156123b557848901548255600182019150600185019450602081019050612390565b868310156123d257848901546123ce601f8916826122c6565b8355505b6001600288020188555050505b5050505050505b565b60006123f382611859565b91507fffffffffffffffffffffffffffffffffffffffffffffffffffffffffffffffff820361242557612424612078565b5b600182019050919050565b7f4e487b7100000000000000000000000000000000000000000000000000000000600052603160045260246000fd5b7f456c656374696f6e2069732063757272656e746c79206f6e676f696e67000000600082015250565b6000612495601d83611d18565b91506124a08261245f565b602082019050919050565b600060208201905081810360008301526124c481612488565b9050919050565b6124d482611872565b67ffffffffffffffff8111156124ed576124ec611a7c565b5b6124f78254611f03565b612502828285612273565b600060209050601f8311600181146125355760008415612523578287015190505b61252d85826122e4565b865550612595565b601f19841661254386612154565b60005b8281101561256b57848901518255600182019150602085019450602081019050612546565b868310156125885784890151612584601f8916826122c6565b8355505b6001600288020188555050505b505050505050565b60006125a882611859565b91506125b383611859565b92508282026125c181611859565b915082820484148315176125d8576125d7612078565b5b5092915050565b60006040820190506125f46000830185611cee565b6126016020830184611cee565b9392505050565b7f6e6f20656c656374696f6e207965740000000000000000000000000000000000600082015250565b600061263e600f83611d18565b915061264982612608565b602082019050919050565b6000602082019050818103600083015261266d81612631565b9050919050565b7f456c656374696f6e20706572696f642068617320656e64656400000000000000600082015250565b60006126aa601983611d18565b91506126b582612674565b602082019050919050565b600060208201905081810360008301526126d98161269d565b9050919050565b7f596f7520616c726561647920766f7465642e20596f752063616e206f6e6c792060008201527f766f7465206f6e63652e00000000000000000000000000000000000000000000602082015250565b600061273c602a83611d18565b9150612747826126e0565b604082019050919050565b6000602082019050818103600083015261276b8161272f565b9050919050565b7f496e76616c6964206475726174696f6e00000000000000000000000000000000600082015250565b60006127a8601083611d18565b91506127b382612772565b602082019050919050565b600060208201905081810360008301526127d78161279b565b9050919050565b7f496e76616c6964206e6577206f776e6572206164647265737300000000000000600082015250565b6000612814601983611d18565b915061281f826127de565b602082019050919050565b6000602082019050818103600083015261284381612807565b905091905056fea2646970667358221220729a3cd5a8b5228941c83dc398976cf58300f6919614d4714a007548af96f8b164736f6c63430008130033",
    "linkReferences": {},
    "deployedLinkReferences": {}
}