{
  "_format": "hh-sol-artifact-1",
  "contractName": "Voting",
  "sourceName": "contracts/Voting.sol",
  "abi": [
    {
      "inputs": [],
      "stateMutability": "nonpayable",
      "type": "constructor"
    },
    {
      "anonymous": false,
      "inputs": [
        {
          "indexed": true,
          "internalType": "uint256",
          "name": "id",
          "type": "uint256"
        },
        {
          "indexed": false,
          "internalType": "string",
          "name": "name",
          "type": "string"
        }
      ],
      "name": "CandidateAdded",
      "type": "event"
    },
    {
      "anonymous": false,
      "inputs": [
        {
          "indexed": false,
          "internalType": "uint256",
          "name": "newDuration",
          "type": "uint256"
        }
      ],
      "name": "ElectionDurationChanged",
      "type": "event"
    },
    {
      "anonymous": false,
      "inputs": [
        {
          "indexed": true,
          "internalType": "address",
          "name": "owner",
          "type": "address"
        }
      ],
      "name": "ElectionFinished",
      "type": "event"
    },
    {
      "anonymous": false,
      "inputs": [
        {
          "indexed": true,
          "internalType": "address",
          "name": "owner",
          "type": "address"
        }
      ],
      "name": "ElectionReset",
      "type": "event"
    },
    {
      "anonymous": false,
      "inputs": [
        {
          "indexed": true,
          "internalType": "address",
          "name": "owner",
          "type": "address"
        },
        {
          "indexed": false,
          "internalType": "uint256",
          "name": "startTimestamp",
          "type": "uint256"
        },
        {
          "indexed": false,
          "internalType": "uint256",
          "name": "endTimestamp",
          "type": "uint256"
        }
      ],
      "name": "ElectionStarted",
      "type": "event"
    },
    {
      "anonymous": false,
      "inputs": [
        {
          "indexed": true,
          "internalType": "address",
          "name": "voter",
          "type": "address"
        },
        {
          "indexed": false,
          "internalType": "uint256",
          "name": "candidateId",
          "type": "uint256"
        }
      ],
      "name": "VoteCast",
      "type": "event"
    },
    {
      "inputs": [
        {
          "internalType": "string",
          "name": "_name",
          "type": "string"
        }
      ],
      "name": "addCandidate",
      "outputs": [],
      "stateMutability": "nonpayable",
      "type": "function"
    },
    {
      "inputs": [
        {
          "internalType": "uint256",
          "name": "",
          "type": "uint256"
        }
      ],
      "name": "candidates",
      "outputs": [
        {
          "internalType": "uint256",
          "name": "id",
          "type": "uint256"
        },
        {
          "internalType": "string",
          "name": "name",
          "type": "string"
        },
        {
          "internalType": "uint256",
          "name": "numberOfVotes",
          "type": "uint256"
        }
      ],
      "stateMutability": "view",
      "type": "function"
    },
    {
      "inputs": [
        {
          "internalType": "uint256",
          "name": "_newDuration",
          "type": "uint256"
        }
      ],
      "name": "changeElectionDuration",
      "outputs": [],
      "stateMutability": "nonpayable",
      "type": "function"
    },
    {
      "inputs": [],
      "name": "checkElectionPeriod",
      "outputs": [
        {
          "internalType": "bool",
          "name": "",
          "type": "bool"
        }
      ],
      "stateMutability": "view",
      "type": "function"
    },
    {
      "inputs": [],
      "name": "electionID",
      "outputs": [
        {
          "internalType": "uint256",
          "name": "",
          "type": "uint256"
        }
      ],
      "stateMutability": "view",
      "type": "function"
    },
    {
      "inputs": [],
      "name": "electionNFTContract",
      "outputs": [
        {
          "internalType": "address",
          "name": "",
          "type": "address"
        }
      ],
      "stateMutability": "view",
      "type": "function"
    },
    {
      "inputs": [],
      "name": "electionStarted",
      "outputs": [
        {
          "internalType": "bool",
          "name": "",
          "type": "bool"
        }
      ],
      "stateMutability": "view",
      "type": "function"
    },
    {
      "inputs": [],
      "name": "electionTimer",
      "outputs": [
        {
          "internalType": "uint256",
          "name": "",
          "type": "uint256"
        }
      ],
      "stateMutability": "view",
      "type": "function"
    },
    {
      "inputs": [
        {
          "internalType": "address",
          "name": "",
          "type": "address"
        }
      ],
      "name": "eligibleVoters",
      "outputs": [
        {
          "internalType": "bool",
          "name": "",
          "type": "bool"
        }
      ],
      "stateMutability": "view",
      "type": "function"
    },
    {
      "inputs": [],
      "name": "endElection",
      "outputs": [],
      "stateMutability": "nonpayable",
      "type": "function"
    },
    {
      "inputs": [],
      "name": "generateMetadata",
      "outputs": [
        {
          "components": [
            {
              "internalType": "uint256",
              "name": "electionID",
              "type": "uint256"
            },
            {
              "internalType": "uint256",
              "name": "winnerID",
              "type": "uint256"
            },
            {
              "internalType": "string",
              "name": "winnerName",
              "type": "string"
            },
            {
              "internalType": "uint256",
              "name": "numberOfVotes",
              "type": "uint256"
            },
            {
              "internalType": "uint256",
              "name": "startTime",
              "type": "uint256"
            },
            {
              "internalType": "uint256",
              "name": "endTime",
              "type": "uint256"
            }
          ],
          "internalType": "struct Voting.ElectionMetadata",
          "name": "",
          "type": "tuple"
        }
      ],
      "stateMutability": "view",
      "type": "function"
    },
    {
      "inputs": [],
      "name": "getWinnerInfo",
      "outputs": [
        {
          "components": [
            {
              "internalType": "uint256",
              "name": "candidateID",
              "type": "uint256"
            },
            {
              "internalType": "string",
              "name": "name",
              "type": "string"
            },
            {
              "internalType": "uint256",
              "name": "numberOfVotes",
              "type": "uint256"
            },
            {
              "internalType": "uint256",
              "name": "electionID",
              "type": "uint256"
            }
          ],
          "internalType": "struct Voting.Winner",
          "name": "",
          "type": "tuple"
        }
      ],
      "stateMutability": "view",
      "type": "function"
    },
    {
      "inputs": [
        {
          "internalType": "address",
          "name": "_participant",
          "type": "address"
        },
        {
          "internalType": "string",
          "name": "_tokenURI",
          "type": "string"
        }
      ],
      "name": "mintResult",
      "outputs": [],
      "stateMutability": "nonpayable",
      "type": "function"
    },
    {
      "inputs": [
        {
          "internalType": "string",
          "name": "_tokenURI",
          "type": "string"
        }
      ],
      "name": "mintResultNFTs",
      "outputs": [],
      "stateMutability": "nonpayable",
      "type": "function"
    },
    {
      "inputs": [],
      "name": "owner",
      "outputs": [
        {
          "internalType": "address",
          "name": "",
          "type": "address"
        }
      ],
      "stateMutability": "view",
      "type": "function"
    },
    {
      "inputs": [
        {
          "internalType": "address",
          "name": "_eligible_voter",
          "type": "address"
        }
      ],
      "name": "registerVoter",
      "outputs": [],
      "stateMutability": "nonpayable",
      "type": "function"
    },
    {
      "inputs": [
        {
          "internalType": "address[]",
          "name": "_eligible_voters",
          "type": "address[]"
        }
      ],
      "name": "registerVoters",
      "outputs": [],
      "stateMutability": "nonpayable",
      "type": "function"
    },
    {
      "inputs": [],
      "name": "removeAllCandidates",
      "outputs": [],
      "stateMutability": "nonpayable",
      "type": "function"
    },
    {
      "inputs": [
        {
          "internalType": "uint256",
          "name": "_candidateId",
          "type": "uint256"
        }
      ],
      "name": "removeCandidate",
      "outputs": [],
      "stateMutability": "nonpayable",
      "type": "function"
    },
    {
      "inputs": [],
      "name": "resetAllVoterStatus",
      "outputs": [],
      "stateMutability": "nonpayable",
      "type": "function"
    },
    {
      "inputs": [],
      "name": "resetElection",
      "outputs": [],
      "stateMutability": "nonpayable",
      "type": "function"
    },
    {
      "inputs": [],
      "name": "retrieveVotes",
      "outputs": [
        {
          "components": [
            {
              "internalType": "uint256",
              "name": "id",
              "type": "uint256"
            },
            {
              "internalType": "string",
              "name": "name",
              "type": "string"
            },
            {
              "internalType": "uint256",
              "name": "numberOfVotes",
              "type": "uint256"
            }
          ],
          "internalType": "struct Voting.Candidate[]",
          "name": "",
          "type": "tuple[]"
        }
      ],
      "stateMutability": "view",
      "type": "function"
    },
    {
      "inputs": [
        {
          "internalType": "address",
          "name": "_electionNFTContract",
          "type": "address"
        }
      ],
      "name": "setElectionNFTContract",
      "outputs": [],
      "stateMutability": "nonpayable",
      "type": "function"
    },
    {
      "inputs": [
        {
          "internalType": "string[]",
          "name": "_candidates",
          "type": "string[]"
        },
        {
          "internalType": "uint256",
          "name": "_votingDuration",
          "type": "uint256"
        }
      ],
      "name": "startElection",
      "outputs": [],
      "stateMutability": "nonpayable",
      "type": "function"
    },
    {
      "inputs": [
        {
          "internalType": "address",
          "name": "newOwner",
          "type": "address"
        }
      ],
      "name": "transferOwnership",
      "outputs": [],
      "stateMutability": "nonpayable",
      "type": "function"
    },
    {
      "inputs": [
        {
          "internalType": "uint256",
          "name": "_id",
          "type": "uint256"
        }
      ],
      "name": "voteTo",
      "outputs": [],
      "stateMutability": "nonpayable",
      "type": "function"
    },
    {
      "inputs": [
        {
          "internalType": "address",
          "name": "_voter",
          "type": "address"
        }
      ],
      "name": "voterStatus",
      "outputs": [
        {
          "internalType": "bool",
          "name": "",
          "type": "bool"
        }
      ],
      "stateMutability": "view",
      "type": "function"
    },
    {
      "inputs": [
        {
          "internalType": "address",
          "name": "",
          "type": "address"
        }
      ],
      "name": "voters",
      "outputs": [
        {
          "internalType": "bool",
          "name": "",
          "type": "bool"
        }
      ],
      "stateMutability": "view",
      "type": "function"
    },
    {
      "inputs": [],
      "name": "votingEndTimeStamp",
      "outputs": [
        {
          "internalType": "uint256",
          "name": "",
          "type": "uint256"
        }
      ],
      "stateMutability": "view",
      "type": "function"
    },
    {
      "inputs": [],
      "name": "votingStartTimeStamp",
      "outputs": [
        {
          "internalType": "uint256",
          "name": "",
          "type": "uint256"
        }
      ],
      "stateMutability": "view",
      "type": "function"
    }
  ],
  "bytecode": "0x608060405234801561001057600080fd5b5033600260006101000a81548173ffffffffffffffffffffffffffffffffffffffff021916908373ffffffffffffffffffffffffffffffffffffffff1602179055506136d0806100616000396000f3fe608060405234801561001057600080fd5b50600436106101a95760003560e01c80638cef1565116100f9578063d6c16fbb11610097578063e9b7001811610071578063e9b700181461045c578063ef2208911461047a578063f2fde38b14610496578063f77683a0146104b2576101a9565b8063d6c16fbb14610404578063e8efd48014610422578063e8f3052314610452576101a9565b8063d4608b72116100d3578063d4608b72146103a2578063d4a6cac8146103ac578063d5346da1146103ca578063d55ec9c1146103e8576101a9565b80638cef1565146103385780638da5cb5b14610354578063a3ec138d14610372576101a9565b806338db6dd311610166578063462e91ec11610140578063462e91ec146102c65780634a399976146102e2578063576cc4f2146102fe57806359f784681461032e576101a9565b806338db6dd3146102705780633c9a4df31461028c5780633d7b995c146102aa576101a9565b8063031e5004146101ae57806309e9d7e2146101cc5780630b56a681146101e8578063128c14ba146102045780632a73faaa146102205780633477ee2e1461023e575b600080fd5b6101b66104bc565b6040516101c391906124ee565b60405180910390f35b6101e660048036038101906101e19190612550565b6105c1565b005b61020260048036038101906101fd9190612798565b610837565b005b61021e600480360381019061021991906127f4565b610aa2565b005b610228610cb9565b604051610235919061284c565b60405180910390f35b61025860048036038101906102539190612550565b610cbf565b604051610267939291906128b1565b60405180910390f35b61028a6004803603810190610285919061294d565b610d81565b005b610294610ecf565b6040516102a1919061284c565b60405180910390f35b6102c460048036038101906102bf9190612550565b610ef7565b005b6102e060048036038101906102db91906127f4565b6111f0565b005b6102fc60048036038101906102f7919061294d565b611392565b005b6103186004803603810190610313919061294d565b611465565b6040516103259190612995565b60405180910390f35b610336611521565b005b610352600480360381019061034d9190612550565b611689565b005b61035c611805565b60405161036991906129bf565b60405180910390f35b61038c6004803603810190610387919061294d565b61182b565b6040516103999190612995565b60405180910390f35b6103aa61184b565b005b6103b4611a0a565b6040516103c19190612995565b60405180910390f35b6103d2611a1b565b6040516103df9190612995565b60405180910390f35b61040260048036038101906103fd9190612a9d565b611a2e565b005b61040c611bd0565b60405161041991906129bf565b60405180910390f35b61043c6004803603810190610437919061294d565b611bf4565b6040516104499190612995565b60405180910390f35b61045a611c14565b005b610464611e5e565b604051610471919061284c565b60405180910390f35b610494600480360381019061048f9190612ae6565b611e64565b005b6104b060048036038101906104ab919061294d565b612072565b005b6104ba6121b5565b005b60606001805480602002602001604051908101604052809291908181526020016000905b828210156105b857838290600052602060002090600302016040518060600160405290816000820154815260200160018201805461051d90612b71565b80601f016020809104026020016040519081016040528092919081815260200182805461054990612b71565b80156105965780601f1061056b57610100808354040283529160200191610596565b820191906000526020600020905b81548152906001019060200180831161057957829003601f168201915b50505050508152602001600282015481525050815260200190600101906104e0565b50505050905090565b600260009054906101000a900473ffffffffffffffffffffffffffffffffffffffff1673ffffffffffffffffffffffffffffffffffffffff163373ffffffffffffffffffffffffffffffffffffffff1614610651576040517f08c379a000000000000000000000000000000000000000000000000000000000815260040161064890612bee565b60405180910390fd5b6001805490508110610698576040517f08c379a000000000000000000000000000000000000000000000000000000000815260040161068f90612c5a565b60405180910390fd5b600960009054906101000a900460ff16156106e8576040517f08c379a00000000000000000000000000000000000000000000000000000000081526004016106df90612cc6565b60405180910390fd5b60008190505b600180805490506106ff9190612d15565b81101561079457600180826107149190612d49565b8154811061072557610724612d7d565b5b90600052602060002090600302016001828154811061074757610746612d7d565b5b906000526020600020906003020160008201548160000155600182018160010190816107739190612f6e565b5060028201548160020155905050808061078c90613056565b9150506106ee565b5060018080805490506107a79190612d15565b815481106107b8576107b7612d7d565b5b90600052602060002090600302016000808201600090556001820160006107df91906122b5565b6002820160009055505060018054806107fb576107fa61309e565b5b600190038181906000526020600020906003020160008082016000905560018201600061082891906122b5565b60028201600090555050905550565b600260009054906101000a900473ffffffffffffffffffffffffffffffffffffffff1673ffffffffffffffffffffffffffffffffffffffff163373ffffffffffffffffffffffffffffffffffffffff16146108c7576040517f08c379a00000000000000000000000000000000000000000000000000000000081526004016108be90612bee565b60405180910390fd5b60001515600960009054906101000a900460ff1615151461091d576040517f08c379a000000000000000000000000000000000000000000000000000000000815260040161091490613119565b60405180910390fd5b5b6000600180549050111561093b5761093660006105c1565b61091e565b60005b82518110156109e7576001604051806060016040528083815260200185848151811061096d5761096c612d7d565b5b60200260200101518152602001600081525090806001815401808255809150506001900390600052602060002090600302016000909190919091506000820151816000015560208201518160010190816109c79190613139565b5060408201518160020155505080806109df90613056565b91505061093e565b506001600960006101000a81548160ff02191690831515021790555042600781905550603c81610a17919061320b565b42610a229190612d49565b600881905550600260009054906101000a900473ffffffffffffffffffffffffffffffffffffffff1673ffffffffffffffffffffffffffffffffffffffff167f711f4f5cdda41420ee1ea628dc5ae0604c1b7809a0dd538249239072a55a33a9600754600854604051610a9692919061324d565b60405180910390a25050565b600260009054906101000a900473ffffffffffffffffffffffffffffffffffffffff1673ffffffffffffffffffffffffffffffffffffffff163373ffffffffffffffffffffffffffffffffffffffff1614610b32576040517f08c379a0000000000000000000000000000000000000000000000000000000008152600401610b2990612bee565b60405180910390fd5b600960009054906101000a900460ff1615610b82576040517f08c379a0000000000000000000000000000000000000000000000000000000008152600401610b79906132e8565b60405180910390fd5b600060075403610bc7576040517f08c379a0000000000000000000000000000000000000000000000000000000008152600401610bbe9061337a565b60405180910390fd5b60005b600580549050811015610cb55760008054906101000a900473ffffffffffffffffffffffffffffffffffffffff1673ffffffffffffffffffffffffffffffffffffffff1663eacabe1460058381548110610c2757610c26612d7d565b5b9060005260206000200160009054906101000a900473ffffffffffffffffffffffffffffffffffffffff16846040518363ffffffff1660e01b8152600401610c7092919061339a565b600060405180830381600087803b158015610c8a57600080fd5b505af1158015610c9e573d6000803e3d6000fd5b505050508080610cad90613056565b915050610bca565b5050565b60075481565b60018181548110610ccf57600080fd5b9060005260206000209060030201600091509050806000015490806001018054610cf890612b71565b80601f0160208091040260200160405190810160405280929190818152602001828054610d2490612b71565b8015610d715780601f10610d4657610100808354040283529160200191610d71565b820191906000526020600020905b815481529060010190602001808311610d5457829003601f168201915b5050505050908060020154905083565b600260009054906101000a900473ffffffffffffffffffffffffffffffffffffffff1673ffffffffffffffffffffffffffffffffffffffff163373ffffffffffffffffffffffffffffffffffffffff1614610e11576040517f08c379a0000000000000000000000000000000000000000000000000000000008152600401610e0890612bee565b60405180910390fd5b6001600460008373ffffffffffffffffffffffffffffffffffffffff1673ffffffffffffffffffffffffffffffffffffffff16815260200190815260200160002060006101000a81548160ff0219169083151502179055506006819080600181540180825580915050600190039060005260206000200160009091909190916101000a81548173ffffffffffffffffffffffffffffffffffffffff021916908373ffffffffffffffffffffffffffffffffffffffff16021790555050565b60006008544210610ee35760009050610ef4565b42600854610ef19190612d15565b90505b90565b600960009054906101000a900460ff16610f46576040517f08c379a0000000000000000000000000000000000000000000000000000000008152600401610f3d90613416565b60405180910390fd5b610f4e611a0a565b610f8d576040517f08c379a0000000000000000000000000000000000000000000000000000000008152600401610f8490613482565b60405180910390fd5b610f9633611465565b15610fd6576040517f08c379a0000000000000000000000000000000000000000000000000000000008152600401610fcd90613514565b60405180910390fd5b600180549050811061101d576040517f08c379a000000000000000000000000000000000000000000000000000000000815260040161101490612c5a565b60405180910390fd5b600460003373ffffffffffffffffffffffffffffffffffffffff1673ffffffffffffffffffffffffffffffffffffffff16815260200190815260200160002060009054906101000a900460ff166110a9576040517f08c379a00000000000000000000000000000000000000000000000000000000081526004016110a090613580565b60405180910390fd5b600181815481106110bd576110bc612d7d565b5b906000526020600020906003020160020160008154809291906110df90613056565b91905055506001600360003373ffffffffffffffffffffffffffffffffffffffff1673ffffffffffffffffffffffffffffffffffffffff16815260200190815260200160002060006101000a81548160ff0219169083151502179055506005339080600181540180825580915050600190039060005260206000200160009091909190916101000a81548173ffffffffffffffffffffffffffffffffffffffff021916908373ffffffffffffffffffffffffffffffffffffffff1602179055503373ffffffffffffffffffffffffffffffffffffffff167fa36cc2bebb74db33e9f88110a07ef56e1b31b24b4c4f51b54b1664266e29f45b826040516111e5919061284c565b60405180910390a250565b600260009054906101000a900473ffffffffffffffffffffffffffffffffffffffff1673ffffffffffffffffffffffffffffffffffffffff163373ffffffffffffffffffffffffffffffffffffffff1614611280576040517f08c379a000000000000000000000000000000000000000000000000000000000815260040161127790612bee565b60405180910390fd5b600960009054906101000a900460ff166112cf576040517f08c379a00000000000000000000000000000000000000000000000000000000081526004016112c690613416565b60405180910390fd5b6001604051806060016040528060018054905081526020018381526020016000815250908060018154018082558091505060019003906000526020600020906003020160009091909190915060008201518160000155602082015181600101908161133a9190613139565b50604082015181600201555050600180805490506113589190612d15565b7fe83b2a43e7e82d975c8a0a6d2f045153c869e111136a34d1889ab7b598e396a38260405161138791906135a0565b60405180910390a250565b600260009054906101000a900473ffffffffffffffffffffffffffffffffffffffff1673ffffffffffffffffffffffffffffffffffffffff163373ffffffffffffffffffffffffffffffffffffffff1614611422576040517f08c379a000000000000000000000000000000000000000000000000000000000815260040161141990612bee565b60405180910390fd5b806000806101000a81548173ffffffffffffffffffffffffffffffffffffffff021916908373ffffffffffffffffffffffffffffffffffffffff16021790555050565b6000600960009054906101000a900460ff166114b6576040517f08c379a00000000000000000000000000000000000000000000000000000000081526004016114ad90613416565b60405180910390fd5b60011515600360008473ffffffffffffffffffffffffffffffffffffffff1673ffffffffffffffffffffffffffffffffffffffff16815260200190815260200160002060009054906101000a900460ff16151503611517576001905061151c565b600090505b919050565b600260009054906101000a900473ffffffffffffffffffffffffffffffffffffffff1673ffffffffffffffffffffffffffffffffffffffff163373ffffffffffffffffffffffffffffffffffffffff16146115b1576040517f08c379a00000000000000000000000000000000000000000000000000000000081526004016115a890612bee565b60405180910390fd5b600960009054906101000a900460ff16611600576040517f08c379a00000000000000000000000000000000000000000000000000000000081526004016115f790613416565b60405180910390fd5b6000600960006101000a81548160ff02191690831515021790555042600881905550600260009054906101000a900473ffffffffffffffffffffffffffffffffffffffff1673ffffffffffffffffffffffffffffffffffffffff167fdbeccdf642d2e5303d30402a5b34dd15059be4afdda8926ead7343c24ad210f660405160405180910390a2565b600260009054906101000a900473ffffffffffffffffffffffffffffffffffffffff1673ffffffffffffffffffffffffffffffffffffffff163373ffffffffffffffffffffffffffffffffffffffff1614611719576040517f08c379a000000000000000000000000000000000000000000000000000000000815260040161171090612bee565b60405180910390fd5b600960009054906101000a900460ff16611768576040517f08c379a000000000000000000000000000000000000000000000000000000000815260040161175f90613416565b60405180910390fd5b600081116117ab576040517f08c379a00000000000000000000000000000000000000000000000000000000081526004016117a29061360e565b60405180910390fd5b603c816117b8919061320b565b6007546117c59190612d49565b6008819055507f72e4390a33c4eaf0e6bcf5b04f5d6f775dd71bb6cbe3965b7d0c460c619702f8816040516117fa919061284c565b60405180910390a150565b600260009054906101000a900473ffffffffffffffffffffffffffffffffffffffff1681565b60036020528060005260406000206000915054906101000a900460ff1681565b600260009054906101000a900473ffffffffffffffffffffffffffffffffffffffff1673ffffffffffffffffffffffffffffffffffffffff163373ffffffffffffffffffffffffffffffffffffffff16146118db576040517f08c379a00000000000000000000000000000000000000000000000000000000081526004016118d290612bee565b60405180910390fd5b60005b600580549050811015611994576000600360006005848154811061190557611904612d7d565b5b9060005260206000200160009054906101000a900473ffffffffffffffffffffffffffffffffffffffff1673ffffffffffffffffffffffffffffffffffffffff1673ffffffffffffffffffffffffffffffffffffffff16815260200190815260200160002060006101000a81548160ff021916908315150217905550808061198c90613056565b9150506118de565b50600560006119a391906122f5565b600260009054906101000a900473ffffffffffffffffffffffffffffffffffffffff1673ffffffffffffffffffffffffffffffffffffffff167f9025efdebb25942b0e5b22ad8b3b075f774f7badd8ab70500d6c47352d78d17660405160405180910390a2565b600080611a15610ecf565b11905090565b600960009054906101000a900460ff1681565b600260009054906101000a900473ffffffffffffffffffffffffffffffffffffffff1673ffffffffffffffffffffffffffffffffffffffff163373ffffffffffffffffffffffffffffffffffffffff1614611abe576040517f08c379a0000000000000000000000000000000000000000000000000000000008152600401611ab590612bee565b60405180910390fd5b60005b8151811015611bcc57600160046000848481518110611ae357611ae2612d7d565b5b602002602001015173ffffffffffffffffffffffffffffffffffffffff1673ffffffffffffffffffffffffffffffffffffffff16815260200190815260200160002060006101000a81548160ff0219169083151502179055506006828281518110611b5157611b50612d7d565b5b60200260200101519080600181540180825580915050600190039060005260206000200160009091909190916101000a81548173ffffffffffffffffffffffffffffffffffffffff021916908373ffffffffffffffffffffffffffffffffffffffff1602179055508080611bc490613056565b915050611ac1565b5050565b60008054906101000a900473ffffffffffffffffffffffffffffffffffffffff1681565b60046020528060005260406000206000915054906101000a900460ff1681565b600260009054906101000a900473ffffffffffffffffffffffffffffffffffffffff1673ffffffffffffffffffffffffffffffffffffffff163373ffffffffffffffffffffffffffffffffffffffff1614611ca4576040517f08c379a0000000000000000000000000000000000000000000000000000000008152600401611c9b90612bee565b60405180910390fd5b600960009054906101000a900460ff1615611cf4576040517f08c379a0000000000000000000000000000000000000000000000000000000008152600401611ceb90613119565b60405180910390fd5b60005b600680549050811015611dad5760006004600060068481548110611d1e57611d1d612d7d565b5b9060005260206000200160009054906101000a900473ffffffffffffffffffffffffffffffffffffffff1673ffffffffffffffffffffffffffffffffffffffff1673ffffffffffffffffffffffffffffffffffffffff16815260200190815260200160002060006101000a81548160ff0219169083151502179055508080611da590613056565b915050611cf7565b5060066000611dbc91906122f5565b611dc461184b565b6000600960006101000a81548160ff02191690831515021790555060006007819055506000600881905550611df76121b5565b600260009054906101000a900473ffffffffffffffffffffffffffffffffffffffff1673ffffffffffffffffffffffffffffffffffffffff167f9025efdebb25942b0e5b22ad8b3b075f774f7badd8ab70500d6c47352d78d17660405160405180910390a2565b60085481565b600260009054906101000a900473ffffffffffffffffffffffffffffffffffffffff1673ffffffffffffffffffffffffffffffffffffffff163373ffffffffffffffffffffffffffffffffffffffff1614611ef4576040517f08c379a0000000000000000000000000000000000000000000000000000000008152600401611eeb90612bee565b60405180910390fd5b600960009054906101000a900460ff1615611f44576040517f08c379a0000000000000000000000000000000000000000000000000000000008152600401611f3b906132e8565b60405180910390fd5b600060075403611f89576040517f08c379a0000000000000000000000000000000000000000000000000000000008152600401611f809061337a565b60405180910390fd5b60008054906101000a900473ffffffffffffffffffffffffffffffffffffffff1673ffffffffffffffffffffffffffffffffffffffff1663eacabe1483836040518363ffffffff1660e01b8152600401611fe492919061339a565b600060405180830381600087803b158015611ffe57600080fd5b505af1158015612012573d6000803e3d6000fd5b505050506001600360008473ffffffffffffffffffffffffffffffffffffffff1673ffffffffffffffffffffffffffffffffffffffff16815260200190815260200160002060006101000a81548160ff0219169083151502179055505050565b600260009054906101000a900473ffffffffffffffffffffffffffffffffffffffff1673ffffffffffffffffffffffffffffffffffffffff163373ffffffffffffffffffffffffffffffffffffffff1614612102576040517f08c379a00000000000000000000000000000000000000000000000000000000081526004016120f990612bee565b60405180910390fd5b600073ffffffffffffffffffffffffffffffffffffffff168173ffffffffffffffffffffffffffffffffffffffff1603612171576040517f08c379a00000000000000000000000000000000000000000000000000000000081526004016121689061367a565b60405180910390fd5b80600260006101000a81548173ffffffffffffffffffffffffffffffffffffffff021916908373ffffffffffffffffffffffffffffffffffffffff16021790555050565b600260009054906101000a900473ffffffffffffffffffffffffffffffffffffffff1673ffffffffffffffffffffffffffffffffffffffff163373ffffffffffffffffffffffffffffffffffffffff1614612245576040517f08c379a000000000000000000000000000000000000000000000000000000000815260040161223c90612bee565b60405180910390fd5b600960009054906101000a900460ff1615612295576040517f08c379a000000000000000000000000000000000000000000000000000000000815260040161228c90613119565b60405180910390fd5b5b600060018054905011156122b3576122ae60006105c1565b612296565b565b5080546122c190612b71565b6000825580601f106122d357506122f2565b601f0160209004906000526020600020908101906122f19190612316565b5b50565b50805460008255906000526020600020908101906123139190612316565b50565b5b8082111561232f576000816000905550600101612317565b5090565b600081519050919050565b600082825260208201905092915050565b6000819050602082019050919050565b6000819050919050565b6123728161235f565b82525050565b600081519050919050565b600082825260208201905092915050565b60005b838110156123b2578082015181840152602081019050612397565b60008484015250505050565b6000601f19601f8301169050919050565b60006123da82612378565b6123e48185612383565b93506123f4818560208601612394565b6123fd816123be565b840191505092915050565b60006060830160008301516124206000860182612369565b506020830151848203602086015261243882826123cf565b915050604083015161244d6040860182612369565b508091505092915050565b60006124648383612408565b905092915050565b6000602082019050919050565b600061248482612333565b61248e818561233e565b9350836020820285016124a08561234f565b8060005b858110156124dc57848403895281516124bd8582612458565b94506124c88361246c565b925060208a019950506001810190506124a4565b50829750879550505050505092915050565b600060208201905081810360008301526125088184612479565b905092915050565b6000604051905090565b600080fd5b600080fd5b61252d8161235f565b811461253857600080fd5b50565b60008135905061254a81612524565b92915050565b6000602082840312156125665761256561251a565b5b60006125748482850161253b565b91505092915050565b600080fd5b7f4e487b7100000000000000000000000000000000000000000000000000000000600052604160045260246000fd5b6125ba826123be565b810181811067ffffffffffffffff821117156125d9576125d8612582565b5b80604052505050565b60006125ec612510565b90506125f882826125b1565b919050565b600067ffffffffffffffff82111561261857612617612582565b5b602082029050602081019050919050565b600080fd5b600080fd5b600067ffffffffffffffff82111561264e5761264d612582565b5b612657826123be565b9050602081019050919050565b82818337600083830152505050565b600061268661268184612633565b6125e2565b9050828152602081018484840111156126a2576126a161262e565b5b6126ad848285612664565b509392505050565b600082601f8301126126ca576126c961257d565b5b81356126da848260208601612673565b91505092915050565b60006126f66126f1846125fd565b6125e2565b9050808382526020820190506020840283018581111561271957612718612629565b5b835b8181101561276057803567ffffffffffffffff81111561273e5761273d61257d565b5b80860161274b89826126b5565b8552602085019450505060208101905061271b565b5050509392505050565b600082601f83011261277f5761277e61257d565b5b813561278f8482602086016126e3565b91505092915050565b600080604083850312156127af576127ae61251a565b5b600083013567ffffffffffffffff8111156127cd576127cc61251f565b5b6127d98582860161276a565b92505060206127ea8582860161253b565b9150509250929050565b60006020828403121561280a5761280961251a565b5b600082013567ffffffffffffffff8111156128285761282761251f565b5b612834848285016126b5565b91505092915050565b6128468161235f565b82525050565b6000602082019050612861600083018461283d565b92915050565b600082825260208201905092915050565b600061288382612378565b61288d8185612867565b935061289d818560208601612394565b6128a6816123be565b840191505092915050565b60006060820190506128c6600083018661283d565b81810360208301526128d88185612878565b90506128e7604083018461283d565b949350505050565b600073ffffffffffffffffffffffffffffffffffffffff82169050919050565b600061291a826128ef565b9050919050565b61292a8161290f565b811461293557600080fd5b50565b60008135905061294781612921565b92915050565b6000602082840312156129635761296261251a565b5b600061297184828501612938565b91505092915050565b60008115159050919050565b61298f8161297a565b82525050565b60006020820190506129aa6000830184612986565b92915050565b6129b98161290f565b82525050565b60006020820190506129d460008301846129b0565b92915050565b600067ffffffffffffffff8211156129f5576129f4612582565b5b602082029050602081019050919050565b6000612a19612a14846129da565b6125e2565b90508083825260208201905060208402830185811115612a3c57612a3b612629565b5b835b81811015612a655780612a518882612938565b845260208401935050602081019050612a3e565b5050509392505050565b600082601f830112612a8457612a8361257d565b5b8135612a94848260208601612a06565b91505092915050565b600060208284031215612ab357612ab261251a565b5b600082013567ffffffffffffffff811115612ad157612ad061251f565b5b612add84828501612a6f565b91505092915050565b60008060408385031215612afd57612afc61251a565b5b6000612b0b85828601612938565b925050602083013567ffffffffffffffff811115612b2c57612b2b61251f565b5b612b38858286016126b5565b9150509250929050565b7f4e487b7100000000000000000000000000000000000000000000000000000000600052602260045260246000fd5b60006002820490506001821680612b8957607f821691505b602082108103612b9c57612b9b612b42565b5b50919050565b7f6e6f7420617574686f72697a656420746f20737461727420656c656374696f6e600082015250565b6000612bd8602083612867565b9150612be382612ba2565b602082019050919050565b60006020820190508181036000830152612c0781612bcb565b9050919050565b7f496e76616c69642063616e646964617465204944000000000000000000000000600082015250565b6000612c44601483612867565b9150612c4f82612c0e565b602082019050919050565b60006020820190508181036000830152612c7381612c37565b9050919050565b7f456c656374696f6e206973206f6e676f696e6700000000000000000000000000600082015250565b6000612cb0601383612867565b9150612cbb82612c7a565b602082019050919050565b60006020820190508181036000830152612cdf81612ca3565b9050919050565b7f4e487b7100000000000000000000000000000000000000000000000000000000600052601160045260246000fd5b6000612d208261235f565b9150612d2b8361235f565b9250828203905081811115612d4357612d42612ce6565b5b92915050565b6000612d548261235f565b9150612d5f8361235f565b9250828201905080821115612d7757612d76612ce6565b5b92915050565b7f4e487b7100000000000000000000000000000000000000000000000000000000600052603260045260246000fd5b600081549050612dbb81612b71565b9050919050565b60008190508160005260206000209050919050565b60006020601f8301049050919050565b600082821b905092915050565b600060088302612e247fffffffffffffffffffffffffffffffffffffffffffffffffffffffffffffffff82612de7565b612e2e8683612de7565b95508019841693508086168417925050509392505050565b6000819050919050565b6000612e6b612e66612e618461235f565b612e46565b61235f565b9050919050565b6000819050919050565b612e8583612e50565b612e99612e9182612e72565b848454612df4565b825550505050565b600090565b612eae612ea1565b612eb9818484612e7c565b505050565b5b81811015612edd57612ed2600082612ea6565b600181019050612ebf565b5050565b601f821115612f2257612ef381612dc2565b612efc84612dd7565b81016020851015612f0b578190505b612f1f612f1785612dd7565b830182612ebe565b50505b505050565b600082821c905092915050565b6000612f4560001984600802612f27565b1980831691505092915050565b6000612f5e8383612f34565b9150826002028217905092915050565b818103612f7c575050613054565b612f8582612dac565b67ffffffffffffffff811115612f9e57612f9d612582565b5b612fa88254612b71565b612fb3828285612ee1565b6000601f831160018114612fe25760008415612fd0578287015490505b612fda8582612f52565b86555061304d565b601f198416612ff087612dc2565b9650612ffb86612dc2565b60005b8281101561302357848901548255600182019150600185019450602081019050612ffe565b86831015613040578489015461303c601f891682612f34565b8355505b6001600288020188555050505b5050505050505b565b60006130618261235f565b91507fffffffffffffffffffffffffffffffffffffffffffffffffffffffffffffffff820361309357613092612ce6565b5b600182019050919050565b7f4e487b7100000000000000000000000000000000000000000000000000000000600052603160045260246000fd5b7f456c656374696f6e2069732063757272656e746c79206f6e676f696e67000000600082015250565b6000613103601d83612867565b915061310e826130cd565b602082019050919050565b60006020820190508181036000830152613132816130f6565b9050919050565b61314282612378565b67ffffffffffffffff81111561315b5761315a612582565b5b6131658254612b71565b613170828285612ee1565b600060209050601f8311600181146131a35760008415613191578287015190505b61319b8582612f52565b865550613203565b601f1984166131b186612dc2565b60005b828110156131d9578489015182556001820191506020850194506020810190506131b4565b868310156131f657848901516131f2601f891682612f34565b8355505b6001600288020188555050505b505050505050565b60006132168261235f565b91506132218361235f565b925082820261322f8161235f565b9150828204841483151761324657613245612ce6565b5b5092915050565b6000604082019050613262600083018561283d565b61326f602083018461283d565b9392505050565b7f456c656374696f6e206973206f6e676f696e672c2063616e6e6f74206d696e7460008201527f204e465473207965740000000000000000000000000000000000000000000000602082015250565b60006132d2602983612867565b91506132dd82613276565b604082019050919050565b60006020820190508181036000830152613301816132c5565b9050919050565b7f54696d657374616d7020697320302c20656c656374696f6e206e6f742065766560008201527f6e20737461727465640000000000000000000000000000000000000000000000602082015250565b6000613364602983612867565b915061336f82613308565b604082019050919050565b6000602082019050818103600083015261339381613357565b9050919050565b60006040820190506133af60008301856129b0565b81810360208301526133c18184612878565b90509392505050565b7f6e6f20656c656374696f6e207965740000000000000000000000000000000000600082015250565b6000613400600f83612867565b915061340b826133ca565b602082019050919050565b6000602082019050818103600083015261342f816133f3565b9050919050565b7f456c656374696f6e20706572696f642068617320656e64656400000000000000600082015250565b600061346c601983612867565b915061347782613436565b602082019050919050565b6000602082019050818103600083015261349b8161345f565b9050919050565b7f596f7520616c726561647920766f7465642e20596f752063616e206f6e6c792060008201527f766f7465206f6e63652e00000000000000000000000000000000000000000000602082015250565b60006134fe602a83612867565b9150613509826134a2565b604082019050919050565b6000602082019050818103600083015261352d816134f1565b9050919050565b7f596f7520617265206e6f7420616e20656c696769626c6520766f7465722e0000600082015250565b600061356a601e83612867565b915061357582613534565b602082019050919050565b600060208201905081810360008301526135998161355d565b9050919050565b600060208201905081810360008301526135ba8184612878565b905092915050565b7f496e76616c6964206475726174696f6e00000000000000000000000000000000600082015250565b60006135f8601083612867565b9150613603826135c2565b602082019050919050565b60006020820190508181036000830152613627816135eb565b9050919050565b7f496e76616c6964206e6577206f776e6572206164647265737300000000000000600082015250565b6000613664601983612867565b915061366f8261362e565b602082019050919050565b6000602082019050818103600083015261369381613657565b905091905056fea26469706673582212205bc23372f620565694d90da6007b568329d55a2e24f2854f0b0746ccb99a017664736f6c63430008140033",
  "linkReferences": {},
  "deployedLinkReferences": {}
}